{
  "_format": "hh-sol-artifact-1",
  "contractName": "WillFactory",
  "sourceName": "contracts/cp.sol",
  "abi": [
    {
      "inputs": [
        {
          "internalType": "address",
          "name": "_owner",
          "type": "address"
        },
        {
          "internalType": "string",
          "name": "_model",
          "type": "string"
        }
      ],
      "name": "create",
      "outputs": [
        {
          "internalType": "address",
          "name": "",
          "type": "address"
        }
      ],
      "stateMutability": "nonpayable",
      "type": "function"
    },
    {
      "inputs": [
        {
          "internalType": "uint256",
          "name": "_index",
          "type": "uint256"
        }
      ],
      "name": "getWillDetails",
      "outputs": [
        {
          "internalType": "address",
          "name": "owner",
          "type": "address"
        },
        {
          "internalType": "string",
          "name": "model",
          "type": "string"
        },
        {
          "internalType": "address",
          "name": "carAddr",
          "type": "address"
        },
        {
          "internalType": "uint256",
          "name": "balance",
          "type": "uint256"
        }
      ],
      "stateMutability": "view",
      "type": "function"
    },
    {
      "inputs": [
        {
          "internalType": "uint256",
          "name": "",
          "type": "uint256"
        }
      ],
      "name": "wills",
      "outputs": [
        {
          "internalType": "contract NewWill",
          "name": "",
          "type": "address"
        }
      ],
      "stateMutability": "view",
      "type": "function"
    }
  ],
  "bytecode": "0x608060405234801561001057600080fd5b50611fd5806100206000396000f3fe60806040523480156200001157600080fd5b5060043610620000465760003560e01c806371ab08de146200004b5780638db7fbe71462000084578063a15ab08d14620000ba575b600080fd5b62000069600480360381019062000063919062000409565b620000f0565b6040516200007b949392919062000535565b60405180910390f35b620000a260048036038101906200009c919062000409565b620002bf565b604051620000b19190620005f4565b60405180910390f35b620000d86004803603810190620000d2919062000793565b620002ff565b604051620000e79190620007f9565b60405180910390f35b6000606060008060008086815481106200010f576200010e62000816565b5b9060005260206000200160009054906101000a900473ffffffffffffffffffffffffffffffffffffffff1690508073ffffffffffffffffffffffffffffffffffffffff16638da5cb5b6040518163ffffffff1660e01b8152600401602060405180830381865afa15801562000188573d6000803e3d6000fd5b505050506040513d601f19601f82011682018060405250810190620001ae91906200085c565b8173ffffffffffffffffffffffffffffffffffffffff16630ad9d0526040518163ffffffff1660e01b8152600401600060405180830381865afa158015620001fa573d6000803e3d6000fd5b505050506040513d6000823e3d601f19601f820116820180604052508101906200022591906200090c565b8273ffffffffffffffffffffffffffffffffffffffff1663514fa6766040518163ffffffff1660e01b8152600401602060405180830381865afa15801562000271573d6000803e3d6000fd5b505050506040513d601f19601f820116820180604052508101906200029791906200085c565b8373ffffffffffffffffffffffffffffffffffffffff16319450945094509450509193509193565b60008181548110620002d057600080fd5b906000526020600020016000915054906101000a900473ffffffffffffffffffffffffffffffffffffffff1681565b60008083836040516200031290620003ac565b6200031f9291906200095d565b604051809103906000f0801580156200033c573d6000803e3d6000fd5b5090506000819080600181540180825580915050600190039060005260206000200160009091909190916101000a81548173ffffffffffffffffffffffffffffffffffffffff021916908373ffffffffffffffffffffffffffffffffffffffff1602179055508091505092915050565b61160e806200099283390190565b6000604051905090565b600080fd5b600080fd5b6000819050919050565b620003e381620003ce565b8114620003ef57600080fd5b50565b6000813590506200040381620003d8565b92915050565b600060208284031215620004225762000421620003c4565b5b60006200043284828501620003f2565b91505092915050565b600073ffffffffffffffffffffffffffffffffffffffff82169050919050565b600062000468826200043b565b9050919050565b6200047a816200045b565b82525050565b600081519050919050565b600082825260208201905092915050565b60005b83811015620004bc5780820151818401526020810190506200049f565b83811115620004cc576000848401525b50505050565b6000601f19601f8301169050919050565b6000620004f08262000480565b620004fc81856200048b565b93506200050e8185602086016200049c565b6200051981620004d2565b840191505092915050565b6200052f81620003ce565b82525050565b60006080820190506200054c60008301876200046f565b8181036020830152620005608186620004e3565b90506200057160408301856200046f565b62000580606083018462000524565b95945050505050565b6000819050919050565b6000620005b4620005ae620005a8846200043b565b62000589565b6200043b565b9050919050565b6000620005c88262000593565b9050919050565b6000620005dc82620005bb565b9050919050565b620005ee81620005cf565b82525050565b60006020820190506200060b6000830184620005e3565b92915050565b6200061c816200045b565b81146200062857600080fd5b50565b6000813590506200063c8162000611565b92915050565b600080fd5b600080fd5b7f4e487b7100000000000000000000000000000000000000000000000000000000600052604160045260246000fd5b6200068682620004d2565b810181811067ffffffffffffffff82111715620006a857620006a76200064c565b5b80604052505050565b6000620006bd620003ba565b9050620006cb82826200067b565b919050565b600067ffffffffffffffff821115620006ee57620006ed6200064c565b5b620006f982620004d2565b9050602081019050919050565b82818337600083830152505050565b60006200072c6200072684620006d0565b620006b1565b9050828152602081018484840111156200074b576200074a62000647565b5b6200075884828562000706565b509392505050565b600082601f83011262000778576200077762000642565b5b81356200078a84826020860162000715565b91505092915050565b60008060408385031215620007ad57620007ac620003c4565b5b6000620007bd858286016200062b565b925050602083013567ffffffffffffffff811115620007e157620007e0620003c9565b5b620007ef8582860162000760565b9150509250929050565b60006020820190506200081060008301846200046f565b92915050565b7f4e487b7100000000000000000000000000000000000000000000000000000000600052603260045260246000fd5b600081519050620008568162000611565b92915050565b600060208284031215620008755762000874620003c4565b5b6000620008858482850162000845565b91505092915050565b6000620008a56200089f84620006d0565b620006b1565b905082815260208101848484011115620008c457620008c362000647565b5b620008d18482856200049c565b509392505050565b600082601f830112620008f157620008f062000642565b5b8151620009038482602086016200088e565b91505092915050565b600060208284031215620009255762000924620003c4565b5b600082015167ffffffffffffffff811115620009465762000945620003c9565b5b6200095484828501620008d9565b91505092915050565b60006040820190506200097460008301856200046f565b8181036020830152620009888184620004e3565b9050939250505056fe608060405260326006556040516200160e3803806200160e83398181016040528101906200002e919062000382565b816000806101000a81548173ffffffffffffffffffffffffffffffffffffffff021916908373ffffffffffffffffffffffffffffffffffffffff160217905550806001908051906020019062000086929190620000d0565b5030600260006101000a81548173ffffffffffffffffffffffffffffffffffffffff021916908373ffffffffffffffffffffffffffffffffffffffff16021790555050506200044c565b828054620000de9062000417565b90600052602060002090601f0160209004810192826200010257600085556200014e565b82601f106200011d57805160ff19168380011785556200014e565b828001600101855582156200014e579182015b828111156200014d57825182559160200191906001019062000130565b5b5090506200015d919062000161565b5090565b5b808211156200017c57600081600090555060010162000162565b5090565b6000604051905090565b600080fd5b600080fd5b600073ffffffffffffffffffffffffffffffffffffffff82169050919050565b6000620001c18262000194565b9050919050565b620001d381620001b4565b8114620001df57600080fd5b50565b600081519050620001f381620001c8565b92915050565b600080fd5b600080fd5b6000601f19601f8301169050919050565b7f4e487b7100000000000000000000000000000000000000000000000000000000600052604160045260246000fd5b6200024e8262000203565b810181811067ffffffffffffffff8211171562000270576200026f62000214565b5b80604052505050565b60006200028562000180565b905062000293828262000243565b919050565b600067ffffffffffffffff821115620002b657620002b562000214565b5b620002c18262000203565b9050602081019050919050565b60005b83811015620002ee578082015181840152602081019050620002d1565b83811115620002fe576000848401525b50505050565b60006200031b620003158462000298565b62000279565b9050828152602081018484840111156200033a5762000339620001fe565b5b62000347848285620002ce565b509392505050565b600082601f830112620003675762000366620001f9565b5b81516200037984826020860162000304565b91505092915050565b600080604083850312156200039c576200039b6200018a565b5b6000620003ac85828601620001e2565b925050602083015167ffffffffffffffff811115620003d057620003cf6200018f565b5b620003de858286016200034f565b9150509250929050565b7f4e487b7100000000000000000000000000000000000000000000000000000000600052602260045260246000fd5b600060028204905060018216806200043057607f821691505b602082108103620004465762000445620003e8565b5b50919050565b6111b2806200045c6000396000f3fe608060405234801561001057600080fd5b50600436106100cf5760003560e01c80637befc7e81161008c578063a39fac1211610066578063a39fac12146101ee578063b175e9651461020c578063b8b482b114610228578063dfc71e8914610258576100cf565b80637befc7e8146101825780638da5cb5b146101a057806399900d11146101be576100cf565b80630ad9d052146100d457806313af4035146100f25780631865c57d1461010e57806346d75c8c1461012c578063514fa6761461014857806359633a1c14610166575b600080fd5b6100dc610274565b6040516100e99190610c04565b60405180910390f35b61010c60048036038101906101079190610c98565b610302565b005b610116610345565b6040516101239190610cde565b60405180910390f35b61014660048036038101906101419190610e2e565b61038c565b005b6101506103a6565b60405161015d9190610e86565b60405180910390f35b610180600480360381019061017b9190610c98565b6103cc565b005b61018a610644565b6040516101979190610cde565b60405180910390f35b6101a861064a565b6040516101b59190610e86565b60405180910390f35b6101d860048036038101906101d39190610c98565b61066e565b6040516101e59190610c04565b60405180910390f35b6101f661077c565b6040516102039190610f5f565b60405180910390f35b61022660048036038101906102219190610fad565b610847565b005b610242600480360381019061023d9190610fda565b610851565b60405161024f9190610c04565b60405180910390f35b610272600480360381019061026d919061101a565b6108fe565b005b60018054610281906110a5565b80601f01602080910402602001604051908101604052809291908181526020018280546102ad906110a5565b80156102fa5780601f106102cf576101008083540402835291602001916102fa565b820191906000526020600020905b8154815290600101906020018083116102dd57829003601f168201915b505050505081565b806000806101000a81548173ffffffffffffffffffffffffffffffffffffffff021916908373ffffffffffffffffffffffffffffffffffffffff16021790555050565b6000600360003373ffffffffffffffffffffffffffffffffffffffff1673ffffffffffffffffffffffffffffffffffffffff16815260200190815260200160002054905090565b80600190805190602001906103a2929190610a88565b5050565b600260009054906101000a900473ffffffffffffffffffffffffffffffffffffffff1681565b6000600460003373ffffffffffffffffffffffffffffffffffffffff1673ffffffffffffffffffffffffffffffffffffffff16815260200190815260200160002080549050905060005b8181101561063f57600460003373ffffffffffffffffffffffffffffffffffffffff1673ffffffffffffffffffffffffffffffffffffffff168152602001908152602001600020818154811061046f5761046e6110d6565b5b9060005260206000200160009054906101000a900473ffffffffffffffffffffffffffffffffffffffff1673ffffffffffffffffffffffffffffffffffffffff168373ffffffffffffffffffffffffffffffffffffffff160361062c57600460003373ffffffffffffffffffffffffffffffffffffffff1673ffffffffffffffffffffffffffffffffffffffff168152602001908152602001600020818154811061051d5761051c6110d6565b5b9060005260206000200160006101000a81549073ffffffffffffffffffffffffffffffffffffffff0219169055600560003373ffffffffffffffffffffffffffffffffffffffff1673ffffffffffffffffffffffffffffffffffffffff16815260200190815260200160002060008473ffffffffffffffffffffffffffffffffffffffff1673ffffffffffffffffffffffffffffffffffffffff16815260200190815260200160002060006105d29190610b0e565b600360003373ffffffffffffffffffffffffffffffffffffffff1673ffffffffffffffffffffffffffffffffffffffff168152602001908152602001600020600081548092919061062290611134565b919050555061063f565b808061063790611134565b915050610416565b505050565b60065481565b60008054906101000a900473ffffffffffffffffffffffffffffffffffffffff1681565b6060600560003373ffffffffffffffffffffffffffffffffffffffff1673ffffffffffffffffffffffffffffffffffffffff16815260200190815260200160002060008373ffffffffffffffffffffffffffffffffffffffff1673ffffffffffffffffffffffffffffffffffffffff16815260200190815260200160002080546106f7906110a5565b80601f0160208091040260200160405190810160405280929190818152602001828054610723906110a5565b80156107705780601f1061074557610100808354040283529160200191610770565b820191906000526020600020905b81548152906001019060200180831161075357829003601f168201915b50505050509050919050565b6060600460003373ffffffffffffffffffffffffffffffffffffffff1673ffffffffffffffffffffffffffffffffffffffff16815260200190815260200160002080548060200260200160405190810160405280929190818152602001828054801561083d57602002820191906000526020600020905b8160009054906101000a900473ffffffffffffffffffffffffffffffffffffffff1673ffffffffffffffffffffffffffffffffffffffff16815260200190600101908083116107f3575b5050505050905090565b8060068190555050565b600560205281600052604060002060205280600052604060002060009150915050805461087d906110a5565b80601f01602080910402602001604051908101604052809291908181526020018280546108a9906110a5565b80156108f65780601f106108cb576101008083540402835291602001916108f6565b820191906000526020600020905b8154815290600101906020018083116108d957829003601f168201915b505050505081565b600460003373ffffffffffffffffffffffffffffffffffffffff1673ffffffffffffffffffffffffffffffffffffffff168152602001908152602001600020829080600181540180825580915050600190039060005260206000200160009091909190916101000a81548173ffffffffffffffffffffffffffffffffffffffff021916908373ffffffffffffffffffffffffffffffffffffffff16021790555080600560003373ffffffffffffffffffffffffffffffffffffffff1673ffffffffffffffffffffffffffffffffffffffff16815260200190815260200160002060008473ffffffffffffffffffffffffffffffffffffffff1673ffffffffffffffffffffffffffffffffffffffff1681526020019081526020016000209080519060200190610a2e929190610a88565b50600360003373ffffffffffffffffffffffffffffffffffffffff1673ffffffffffffffffffffffffffffffffffffffff1681526020019081526020016000206000815480929190610a7f90611134565b91905055505050565b828054610a94906110a5565b90600052602060002090601f016020900481019282610ab65760008555610afd565b82601f10610acf57805160ff1916838001178555610afd565b82800160010185558215610afd579182015b82811115610afc578251825591602001919060010190610ae1565b5b509050610b0a9190610b4e565b5090565b508054610b1a906110a5565b6000825580601f10610b2c5750610b4b565b601f016020900490600052602060002090810190610b4a9190610b4e565b5b50565b5b80821115610b67576000816000905550600101610b4f565b5090565b600081519050919050565b600082825260208201905092915050565b60005b83811015610ba5578082015181840152602081019050610b8a565b83811115610bb4576000848401525b50505050565b6000601f19601f8301169050919050565b6000610bd682610b6b565b610be08185610b76565b9350610bf0818560208601610b87565b610bf981610bba565b840191505092915050565b60006020820190508181036000830152610c1e8184610bcb565b905092915050565b6000604051905090565b600080fd5b600080fd5b600073ffffffffffffffffffffffffffffffffffffffff82169050919050565b6000610c6582610c3a565b9050919050565b610c7581610c5a565b8114610c8057600080fd5b50565b600081359050610c9281610c6c565b92915050565b600060208284031215610cae57610cad610c30565b5b6000610cbc84828501610c83565b91505092915050565b6000819050919050565b610cd881610cc5565b82525050565b6000602082019050610cf36000830184610ccf565b92915050565b600080fd5b600080fd5b7f4e487b7100000000000000000000000000000000000000000000000000000000600052604160045260246000fd5b610d3b82610bba565b810181811067ffffffffffffffff82111715610d5a57610d59610d03565b5b80604052505050565b6000610d6d610c26565b9050610d798282610d32565b919050565b600067ffffffffffffffff821115610d9957610d98610d03565b5b610da282610bba565b9050602081019050919050565b82818337600083830152505050565b6000610dd1610dcc84610d7e565b610d63565b905082815260208101848484011115610ded57610dec610cfe565b5b610df8848285610daf565b509392505050565b600082601f830112610e1557610e14610cf9565b5b8135610e25848260208601610dbe565b91505092915050565b600060208284031215610e4457610e43610c30565b5b600082013567ffffffffffffffff811115610e6257610e61610c35565b5b610e6e84828501610e00565b91505092915050565b610e8081610c5a565b82525050565b6000602082019050610e9b6000830184610e77565b92915050565b600081519050919050565b600082825260208201905092915050565b6000819050602082019050919050565b610ed681610c5a565b82525050565b6000610ee88383610ecd565b60208301905092915050565b6000602082019050919050565b6000610f0c82610ea1565b610f168185610eac565b9350610f2183610ebd565b8060005b83811015610f52578151610f398882610edc565b9750610f4483610ef4565b925050600181019050610f25565b5085935050505092915050565b60006020820190508181036000830152610f798184610f01565b905092915050565b610f8a81610cc5565b8114610f9557600080fd5b50565b600081359050610fa781610f81565b92915050565b600060208284031215610fc357610fc2610c30565b5b6000610fd184828501610f98565b91505092915050565b60008060408385031215610ff157610ff0610c30565b5b6000610fff85828601610c83565b925050602061101085828601610c83565b9150509250929050565b6000806040838503121561103157611030610c30565b5b600061103f85828601610c83565b925050602083013567ffffffffffffffff8111156110605761105f610c35565b5b61106c85828601610e00565b9150509250929050565b7f4e487b7100000000000000000000000000000000000000000000000000000000600052602260045260246000fd5b600060028204905060018216806110bd57607f821691505b6020821081036110d0576110cf611076565b5b50919050565b7f4e487b7100000000000000000000000000000000000000000000000000000000600052603260045260246000fd5b7f4e487b7100000000000000000000000000000000000000000000000000000000600052601160045260246000fd5b600061113f82610cc5565b91507fffffffffffffffffffffffffffffffffffffffffffffffffffffffffffffffff820361117157611170611105565b5b60018201905091905056fea26469706673582212209e5f7881046e0b66427f9f72b772d70ef080398db904d94238568176c40e2a2864736f6c634300080d0033a26469706673582212201b028a04e994cb4867b6f6f53c0667cc2a01514348a07ef56f95b3a21b43489864736f6c634300080d0033",
  "linkReferences": {},
  "deployedLinkReferences": {}
}